:1000000037C0000050C000004EC000004CC00000CF
:100010004AC0000048C0000046C0000044C00000C4
:1000200042C00000CFC100003EC000003CC0000044
:100030003AC0000038C0000036C0000034C00000E4
:1000400032C0000030C000002EC000002CC00000F4
:100050002AC0000028C0000026C0000024C0000004
:1000600022C0000020C00000000A0A0A00110E0091
:1000700011241FBECFEFD4E0DEBFCDBF11E0A0E062
:10008000B1E0E8E5F5E002C005900D92AC31B107B2
:10009000D9F711E0ACE1B1E001C01D92A732B10780
:1000A000E1F702D058C2ACCFCFEFD4E0DEBFCDBF76
:1000B00060E088E690E04CD1E5D060E070E0CB01F4
:1000C000D0D080E091E01AD180E17AD1DBD060E03D
:1000D00070E0CB01C6D080E015D187E091E00ED171
:1000E00084EF91E0AED161E070E080E090E0B9D0C3
:1000F0008DE091E003D182E063D1DECF65B190E085
:10010000AC0141705070440F551F9C012670307037
:1001100053E0220F331F5A95E1F7422B6D7C462B9B
:1001200045B92BB18870907034E0880F991F3A95CB
:10013000E1F72F77282B2BB95C9A81E090E0FC0146
:100140006F9364E06A95F1F76F913197C9F75C9806
:100150006F9364E06A95F1F76F910197C9F708957D
:10016000A0E0B0E0E5EBF0E0CAC1DAB057985A98E9
:10017000289AA6D17B018C01C1E0D0E05C9ACE0127
:100180006F9364E06A95F1F76F910197C9F789B1B0
:100190005C98FE016F9364E06A95F1F76F91319777
:1001A000C9F75C9AFE016F9364E06A95F1F76F916D
:1001B0003197C9F75C9887FF0AC082D16E197F0911
:1001C000800B910B6A30710581059105B8F2DAB8A0
:1001D000CDB7DEB7E7E0AFC1CF92DF92EF92FF92EB
:1001E0000F931F93082F162F73D0BADFD4B0C5B06A
:1001F000FAB0EBB05A9828988BB1110F110F812BE0
:100200008BB984B1826384B9579A802F82958F709D
:1002100075DF802F8F7072DFFAB8EBB8D4B8C5B82D
:100220001F910F91FF90EF90DF90CF90089560E0C5
:10023000D3CFA2E0B0E0EEE1F1E064C1182F062FC9
:1002400080E8898380EC8A83FE01E60FF11D8181BD
:10025000810FEDDF10931D0100931C012296E4E055
:100260006DC1E7CF089581E0E2DFE4E1F1E080E2F3
:10027000819391E0EC31F907D9F710921D011092AA
:100280001C010895F0CF0895529A209A549A84E15F
:1002900090E0E6D080E3CBDF86E090E0E1D080E341
:1002A000C6DF82E090E0DCD080E3C1DF82E090E056
:1002B000D7D080E2BCDF82E090E0D2D088E2B7DF26
:1002C00088E0B5DF81E0B3DF86E0B1DF8CE0AFCF5F
:1002D00080911E01882321F481E080931E01D4CFF8
:1002E0000895CF93DF93EC0103C0219661E074DFA2
:1002F00088818823D1F7DF91CF910895F2CF0895B7
:1003000061E06ACFFDCF0895EF92FF920F931F93A4
:10031000CF93DF937C01062F10E0E3E0000F111F65
:10032000EA95E1F7C0E0D0E09E01200F822F8064C3
:100330007EDFF701EC0FFD1FE4918E2F61E04CDFB3
:100340002196C830D10581F7CDB7DEB7E6E0F4C01D
:10035000DBCF08951F93CF93DF93182F80911F0158
:10036000882391F481E080931F0184B18D7C84B94E
:1003700085B1826385B981E090E06F9364E06A950E
:10038000F1F76F910197C9F7C12FD0E083B190E0E9
:10039000809590958C239D23892BC1F38AE090E072
:1003A0005FD083B190E0809590958C239D23892B1D
:1003B00069F383B180958123DF91CF911F910895D7
:1003C000C9CF08951F920F920FB60F9211242F9349
:1003D0003F934F938F939F93AF93BF9320912401AB
:1003E00030912501C90180509C4F90932501809345
:1003F000240180519742C8F0809120019091210101
:10040000A0912201B09123010196A11DB11D8093FD
:10041000200190932101A0932201B0932301205148
:1004200033423093250120932401BF91AF919F91D6
:100430008F914F913F912F910F900FBE0F901F9072
:10044000189528EE33E009C0F9016F9364E06A95CE
:10045000F1F76F913197C9F701970097A9F70895C0
:1004600028EE33E009C0F9016F9364E06A95F1F773
:100470006F913197C9F701970097A9F70895A0E701
:10048000B0E08C918E7F8C93E0EBF0E08081836014
:100490008083E1EBF0E08081807F808380818260D7
:1004A0008083B89A8C9181608C9378940895809120
:1004B0002601882321F481E080932601E0CF08956E
:1004C000F6DFE0E7F0E080818E7F808320912001DD
:1004D000309121014091220150912301808181605E
:1004E0008083B901CA0108952F923F924F925F9283
:1004F0006F927F928F929F92AF92BF92CF92DF9234
:10050000EF92FF920F931F93CF93DF93CDB7DEB798
:10051000CA1BDB0B0FB6F894DEBF0FBECDBF09942C
:100520002A88398848885F846E847D848C849B8483
:10053000AA84B984C884DF80EE80FD800C811B8191
:10054000AA81B981CE0FD11D0FB6F894DEBF0FBEC0
:08055000CDBFED010895FFCFBE
:100558005075736820420020594159210050757325
:0C056800682041002020202020202020BE
:00000001FF
